{
  "address": "0x9dCB034E395D3036A71338c300396768908BE881",
  "abi": [
    {
      "inputs": [
        {
          "internalType": "contract ISuperfluid",
          "name": "_host",
          "type": "address"
        }
      ],
      "stateMutability": "nonpayable",
      "type": "constructor"
    },
    {
      "inputs": [],
      "name": "SF_TOKEN_AGREEMENT_ALREADY_EXISTS",
      "type": "error"
    },
    {
      "inputs": [],
      "name": "SF_TOKEN_AGREEMENT_DOES_NOT_EXIST",
      "type": "error"
    },
    {
      "inputs": [],
      "name": "SF_TOKEN_BURN_INSUFFICIENT_BALANCE",
      "type": "error"
    },
    {
      "inputs": [],
      "name": "SF_TOKEN_MOVE_INSUFFICIENT_BALANCE",
      "type": "error"
    },
    {
      "inputs": [],
      "name": "SF_TOKEN_ONLY_HOST",
      "type": "error"
    },
    {
      "inputs": [],
      "name": "SF_TOKEN_ONLY_LISTED_AGREEMENT",
      "type": "error"
    },
    {
      "inputs": [],
      "name": "SUPER_TOKEN_APPROVE_FROM_ZERO_ADDRESS",
      "type": "error"
    },
    {
      "inputs": [],
      "name": "SUPER_TOKEN_APPROVE_TO_ZERO_ADDRESS",
      "type": "error"
    },
    {
      "inputs": [],
      "name": "SUPER_TOKEN_BURN_FROM_ZERO_ADDRESS",
      "type": "error"
    },
    {
      "inputs": [],
      "name": "SUPER_TOKEN_CALLER_IS_NOT_OPERATOR_FOR_HOLDER",
      "type": "error"
    },
    {
      "inputs": [],
      "name": "SUPER_TOKEN_INFLATIONARY_DEFLATIONARY_NOT_SUPPORTED",
      "type": "error"
    },
    {
      "inputs": [],
      "name": "SUPER_TOKEN_MINT_TO_ZERO_ADDRESS",
      "type": "error"
    },
    {
      "inputs": [],
      "name": "SUPER_TOKEN_NOT_ERC777_TOKENS_RECIPIENT",
      "type": "error"
    },
    {
      "inputs": [],
      "name": "SUPER_TOKEN_NO_UNDERLYING_TOKEN",
      "type": "error"
    },
    {
      "inputs": [],
      "name": "SUPER_TOKEN_ONLY_HOST",
      "type": "error"
    },
    {
      "inputs": [],
      "name": "SUPER_TOKEN_ONLY_SELF",
      "type": "error"
    },
    {
      "inputs": [],
      "name": "SUPER_TOKEN_TRANSFER_FROM_ZERO_ADDRESS",
      "type": "error"
    },
    {
      "inputs": [],
      "name": "SUPER_TOKEN_TRANSFER_TO_ZERO_ADDRESS",
      "type": "error"
    },
    {
      "anonymous": false,
      "inputs": [
        {
          "indexed": true,
          "internalType": "address",
          "name": "agreementClass",
          "type": "address"
        },
        {
          "indexed": false,
          "internalType": "bytes32",
          "name": "id",
          "type": "bytes32"
        },
        {
          "indexed": false,
          "internalType": "bytes32[]",
          "name": "data",
          "type": "bytes32[]"
        }
      ],
      "name": "AgreementCreated",
      "type": "event"
    },
    {
      "anonymous": false,
      "inputs": [
        {
          "indexed": true,
          "internalType": "address",
          "name": "agreementClass",
          "type": "address"
        },
        {
          "indexed": false,
          "internalType": "bytes32",
          "name": "id",
          "type": "bytes32"
        },
        {
          "indexed": true,
          "internalType": "address",
          "name": "penaltyAccount",
          "type": "address"
        },
        {
          "indexed": true,
          "internalType": "address",
          "name": "rewardAccount",
          "type": "address"
        },
        {
          "indexed": false,
          "internalType": "uint256",
          "name": "rewardAmount",
          "type": "uint256"
        }
      ],
      "name": "AgreementLiquidated",
      "type": "event"
    },
    {
      "anonymous": false,
      "inputs": [
        {
          "indexed": false,
          "internalType": "address",
          "name": "liquidatorAccount",
          "type": "address"
        },
        {
          "indexed": true,
          "internalType": "address",
          "name": "agreementClass",
          "type": "address"
        },
        {
          "indexed": false,
          "internalType": "bytes32",
          "name": "id",
          "type": "bytes32"
        },
        {
          "indexed": true,
          "internalType": "address",
          "name": "penaltyAccount",
          "type": "address"
        },
        {
          "indexed": true,
          "internalType": "address",
          "name": "bondAccount",
          "type": "address"
        },
        {
          "indexed": false,
          "internalType": "uint256",
          "name": "rewardAmount",
          "type": "uint256"
        },
        {
          "indexed": false,
          "internalType": "uint256",
          "name": "bailoutAmount",
          "type": "uint256"
        }
      ],
      "name": "AgreementLiquidatedBy",
      "type": "event"
    },
    {
      "anonymous": false,
      "inputs": [
        {
          "indexed": true,
          "internalType": "address",
          "name": "agreementClass",
          "type": "address"
        },
        {
          "indexed": false,
          "internalType": "bytes32",
          "name": "id",
          "type": "bytes32"
        },
        {
          "indexed": true,
          "internalType": "address",
          "name": "liquidatorAccount",
          "type": "address"
        },
        {
          "indexed": true,
          "internalType": "address",
          "name": "targetAccount",
          "type": "address"
        },
        {
          "indexed": false,
          "internalType": "address",
          "name": "rewardAmountReceiver",
          "type": "address"
        },
        {
          "indexed": false,
          "internalType": "uint256",
          "name": "rewardAmount",
          "type": "uint256"
        },
        {
          "indexed": false,
          "internalType": "int256",
          "name": "targetAccountBalanceDelta",
          "type": "int256"
        },
        {
          "indexed": false,
          "internalType": "bytes",
          "name": "liquidationTypeData",
          "type": "bytes"
        }
      ],
      "name": "AgreementLiquidatedV2",
      "type": "event"
    },
    {
      "anonymous": false,
      "inputs": [
        {
          "indexed": true,
          "internalType": "address",
          "name": "agreementClass",
          "type": "address"
        },
        {
          "indexed": true,
          "internalType": "address",
          "name": "account",
          "type": "address"
        },
        {
          "indexed": false,
          "internalType": "uint256",
          "name": "slotId",
          "type": "uint256"
        }
      ],
      "name": "AgreementStateUpdated",
      "type": "event"
    },
    {
      "anonymous": false,
      "inputs": [
        {
          "indexed": true,
          "internalType": "address",
          "name": "agreementClass",
          "type": "address"
        },
        {
          "indexed": false,
          "internalType": "bytes32",
          "name": "id",
          "type": "bytes32"
        }
      ],
      "name": "AgreementTerminated",
      "type": "event"
    },
    {
      "anonymous": false,
      "inputs": [
        {
          "indexed": true,
          "internalType": "address",
          "name": "agreementClass",
          "type": "address"
        },
        {
          "indexed": false,
          "internalType": "bytes32",
          "name": "id",
          "type": "bytes32"
        },
        {
          "indexed": false,
          "internalType": "bytes32[]",
          "name": "data",
          "type": "bytes32[]"
        }
      ],
      "name": "AgreementUpdated",
      "type": "event"
    },
    {
      "anonymous": false,
      "inputs": [
        {
          "indexed": true,
          "internalType": "address",
          "name": "owner",
          "type": "address"
        },
        {
          "indexed": true,
          "internalType": "address",
          "name": "spender",
          "type": "address"
        },
        {
          "indexed": false,
          "internalType": "uint256",
          "name": "value",
          "type": "uint256"
        }
      ],
      "name": "Approval",
      "type": "event"
    },
    {
      "anonymous": false,
      "inputs": [
        {
          "indexed": true,
          "internalType": "address",
          "name": "operator",
          "type": "address"
        },
        {
          "indexed": true,
          "internalType": "address",
          "name": "tokenHolder",
          "type": "address"
        }
      ],
      "name": "AuthorizedOperator",
      "type": "event"
    },
    {
      "anonymous": false,
      "inputs": [
        {
          "indexed": true,
          "internalType": "address",
          "name": "bailoutAccount",
          "type": "address"
        },
        {
          "indexed": false,
          "internalType": "uint256",
          "name": "bailoutAmount",
          "type": "uint256"
        }
      ],
      "name": "Bailout",
      "type": "event"
    },
    {
      "anonymous": false,
      "inputs": [
        {
          "indexed": true,
          "internalType": "address",
          "name": "operator",
          "type": "address"
        },
        {
          "indexed": true,
          "internalType": "address",
          "name": "from",
          "type": "address"
        },
        {
          "indexed": false,
          "internalType": "uint256",
          "name": "amount",
          "type": "uint256"
        },
        {
          "indexed": false,
          "internalType": "bytes",
          "name": "data",
          "type": "bytes"
        },
        {
          "indexed": false,
          "internalType": "bytes",
          "name": "operatorData",
          "type": "bytes"
        }
      ],
      "name": "Burned",
      "type": "event"
    },
    {
      "anonymous": false,
      "inputs": [
        {
          "indexed": false,
          "internalType": "bytes32",
          "name": "uuid",
          "type": "bytes32"
        },
        {
          "indexed": false,
          "internalType": "address",
          "name": "codeAddress",
          "type": "address"
        }
      ],
      "name": "CodeUpdated",
      "type": "event"
    },
    {
      "anonymous": false,
      "inputs": [
        {
          "indexed": false,
          "internalType": "uint8",
          "name": "version",
          "type": "uint8"
        }
      ],
      "name": "Initialized",
      "type": "event"
    },
    {
      "anonymous": false,
      "inputs": [
        {
          "indexed": true,
          "internalType": "address",
          "name": "operator",
          "type": "address"
        },
        {
          "indexed": true,
          "internalType": "address",
          "name": "to",
          "type": "address"
        },
        {
          "indexed": false,
          "internalType": "uint256",
          "name": "amount",
          "type": "uint256"
        },
        {
          "indexed": false,
          "internalType": "bytes",
          "name": "data",
          "type": "bytes"
        },
        {
          "indexed": false,
          "internalType": "bytes",
          "name": "operatorData",
          "type": "bytes"
        }
      ],
      "name": "Minted",
      "type": "event"
    },
    {
      "anonymous": false,
      "inputs": [
        {
          "indexed": true,
          "internalType": "address",
          "name": "operator",
          "type": "address"
        },
        {
          "indexed": true,
          "internalType": "address",
          "name": "tokenHolder",
          "type": "address"
        }
      ],
      "name": "RevokedOperator",
      "type": "event"
    },
    {
      "anonymous": false,
      "inputs": [
        {
          "indexed": true,
          "internalType": "address",
          "name": "operator",
          "type": "address"
        },
        {
          "indexed": true,
          "internalType": "address",
          "name": "from",
          "type": "address"
        },
        {
          "indexed": true,
          "internalType": "address",
          "name": "to",
          "type": "address"
        },
        {
          "indexed": false,
          "internalType": "uint256",
          "name": "amount",
          "type": "uint256"
        },
        {
          "indexed": false,
          "internalType": "bytes",
          "name": "data",
          "type": "bytes"
        },
        {
          "indexed": false,
          "internalType": "bytes",
          "name": "operatorData",
          "type": "bytes"
        }
      ],
      "name": "Sent",
      "type": "event"
    },
    {
      "anonymous": false,
      "inputs": [
        {
          "indexed": true,
          "internalType": "address",
          "name": "account",
          "type": "address"
        },
        {
          "indexed": false,
          "internalType": "uint256",
          "name": "amount",
          "type": "uint256"
        }
      ],
      "name": "TokenDowngraded",
      "type": "event"
    },
    {
      "anonymous": false,
      "inputs": [
        {
          "indexed": true,
          "internalType": "address",
          "name": "account",
          "type": "address"
        },
        {
          "indexed": false,
          "internalType": "uint256",
          "name": "amount",
          "type": "uint256"
        }
      ],
      "name": "TokenUpgraded",
      "type": "event"
    },
    {
      "anonymous": false,
      "inputs": [
        {
          "indexed": true,
          "internalType": "address",
          "name": "from",
          "type": "address"
        },
        {
          "indexed": true,
          "internalType": "address",
          "name": "to",
          "type": "address"
        },
        {
          "indexed": false,
          "internalType": "uint256",
          "name": "value",
          "type": "uint256"
        }
      ],
      "name": "Transfer",
      "type": "event"
    },
    {
      "inputs": [
        {
          "internalType": "address",
          "name": "account",
          "type": "address"
        },
        {
          "internalType": "address",
          "name": "spender",
          "type": "address"
        }
      ],
      "name": "allowance",
      "outputs": [
        {
          "internalType": "uint256",
          "name": "",
          "type": "uint256"
        }
      ],
      "stateMutability": "view",
      "type": "function"
    },
    {
      "inputs": [
        {
          "internalType": "address",
          "name": "spender",
          "type": "address"
        },
        {
          "internalType": "uint256",
          "name": "amount",
          "type": "uint256"
        }
      ],
      "name": "approve",
      "outputs": [
        {
          "internalType": "bool",
          "name": "",
          "type": "bool"
        }
      ],
      "stateMutability": "nonpayable",
      "type": "function"
    },
    {
      "inputs": [
        {
          "internalType": "address",
          "name": "operator",
          "type": "address"
        }
      ],
      "name": "authorizeOperator",
      "outputs": [],
      "stateMutability": "nonpayable",
      "type": "function"
    },
    {
      "inputs": [
        {
          "internalType": "address",
          "name": "account",
          "type": "address"
        }
      ],
      "name": "balanceOf",
      "outputs": [
        {
          "internalType": "uint256",
          "name": "balance",
          "type": "uint256"
        }
      ],
      "stateMutability": "view",
      "type": "function"
    },
    {
      "inputs": [
        {
          "internalType": "uint256",
          "name": "amount",
          "type": "uint256"
        },
        {
          "internalType": "bytes",
          "name": "data",
          "type": "bytes"
        }
      ],
      "name": "burn",
      "outputs": [],
      "stateMutability": "nonpayable",
      "type": "function"
    },
    {
      "inputs": [],
      "name": "castrate",
      "outputs": [],
      "stateMutability": "nonpayable",
      "type": "function"
    },
    {
      "inputs": [
        {
          "internalType": "bytes32",
          "name": "id",
          "type": "bytes32"
        },
        {
          "internalType": "bytes32[]",
          "name": "data",
          "type": "bytes32[]"
        }
      ],
      "name": "createAgreement",
      "outputs": [],
      "stateMutability": "nonpayable",
      "type": "function"
    },
    {
      "inputs": [],
      "name": "decimals",
      "outputs": [
        {
          "internalType": "uint8",
          "name": "",
          "type": "uint8"
        }
      ],
      "stateMutability": "pure",
      "type": "function"
    },
    {
      "inputs": [
        {
          "internalType": "address",
          "name": "spender",
          "type": "address"
        },
        {
          "internalType": "uint256",
          "name": "subtractedValue",
          "type": "uint256"
        }
      ],
      "name": "decreaseAllowance",
      "outputs": [
        {
          "internalType": "bool",
          "name": "",
          "type": "bool"
        }
      ],
      "stateMutability": "nonpayable",
      "type": "function"
    },
    {
      "inputs": [],
      "name": "defaultOperators",
      "outputs": [
        {
          "internalType": "address[]",
          "name": "",
          "type": "address[]"
        }
      ],
      "stateMutability": "view",
      "type": "function"
    },
    {
      "inputs": [
        {
          "internalType": "uint256",
          "name": "amount",
          "type": "uint256"
        }
      ],
      "name": "downgrade",
      "outputs": [],
      "stateMutability": "nonpayable",
      "type": "function"
    },
    {
      "inputs": [
        {
          "internalType": "address",
          "name": "to",
          "type": "address"
        },
        {
          "internalType": "uint256",
          "name": "amount",
          "type": "uint256"
        }
      ],
      "name": "downgradeTo",
      "outputs": [],
      "stateMutability": "nonpayable",
      "type": "function"
    },
    {
      "inputs": [
        {
          "internalType": "address",
          "name": "account",
          "type": "address"
        }
      ],
      "name": "getAccountActiveAgreements",
      "outputs": [
        {
          "internalType": "contract ISuperAgreement[]",
          "name": "",
          "type": "address[]"
        }
      ],
      "stateMutability": "view",
      "type": "function"
    },
    {
      "inputs": [
        {
          "internalType": "address",
          "name": "agreementClass",
          "type": "address"
        },
        {
          "internalType": "bytes32",
          "name": "id",
          "type": "bytes32"
        },
        {
          "internalType": "uint256",
          "name": "dataLength",
          "type": "uint256"
        }
      ],
      "name": "getAgreementData",
      "outputs": [
        {
          "internalType": "bytes32[]",
          "name": "data",
          "type": "bytes32[]"
        }
      ],
      "stateMutability": "view",
      "type": "function"
    },
    {
      "inputs": [
        {
          "internalType": "address",
          "name": "agreementClass",
          "type": "address"
        },
        {
          "internalType": "address",
          "name": "account",
          "type": "address"
        },
        {
          "internalType": "uint256",
          "name": "slotId",
          "type": "uint256"
        },
        {
          "internalType": "uint256",
          "name": "dataLength",
          "type": "uint256"
        }
      ],
      "name": "getAgreementStateSlot",
      "outputs": [
        {
          "internalType": "bytes32[]",
          "name": "slotData",
          "type": "bytes32[]"
        }
      ],
      "stateMutability": "view",
      "type": "function"
    },
    {
      "inputs": [],
      "name": "getCodeAddress",
      "outputs": [
        {
          "internalType": "address",
          "name": "codeAddress",
          "type": "address"
        }
      ],
      "stateMutability": "view",
      "type": "function"
    },
    {
      "inputs": [],
      "name": "getHost",
      "outputs": [
        {
          "internalType": "address",
          "name": "host",
          "type": "address"
        }
      ],
      "stateMutability": "view",
      "type": "function"
    },
    {
      "inputs": [],
      "name": "getUnderlyingToken",
      "outputs": [
        {
          "internalType": "address",
          "name": "",
          "type": "address"
        }
      ],
      "stateMutability": "view",
      "type": "function"
    },
    {
      "inputs": [],
      "name": "granularity",
      "outputs": [
        {
          "internalType": "uint256",
          "name": "",
          "type": "uint256"
        }
      ],
      "stateMutability": "pure",
      "type": "function"
    },
    {
      "inputs": [
        {
          "internalType": "address",
          "name": "spender",
          "type": "address"
        },
        {
          "internalType": "uint256",
          "name": "addedValue",
          "type": "uint256"
        }
      ],
      "name": "increaseAllowance",
      "outputs": [
        {
          "internalType": "bool",
          "name": "",
          "type": "bool"
        }
      ],
      "stateMutability": "nonpayable",
      "type": "function"
    },
    {
      "inputs": [
        {
          "internalType": "contract IERC20",
          "name": "underlyingToken",
          "type": "address"
        },
        {
          "internalType": "uint8",
          "name": "underlyingDecimals",
          "type": "uint8"
        },
        {
          "internalType": "string",
          "name": "n",
          "type": "string"
        },
        {
          "internalType": "string",
          "name": "s",
          "type": "string"
        }
      ],
      "name": "initialize",
      "outputs": [],
      "stateMutability": "nonpayable",
      "type": "function"
    },
    {
      "inputs": [
        {
          "internalType": "address",
          "name": "account",
          "type": "address"
        },
        {
          "internalType": "uint256",
          "name": "timestamp",
          "type": "uint256"
        }
      ],
      "name": "isAccountCritical",
      "outputs": [
        {
          "internalType": "bool",
          "name": "isCritical",
          "type": "bool"
        }
      ],
      "stateMutability": "view",
      "type": "function"
    },
    {
      "inputs": [
        {
          "internalType": "address",
          "name": "account",
          "type": "address"
        }
      ],
      "name": "isAccountCriticalNow",
      "outputs": [
        {
          "internalType": "bool",
          "name": "isCritical",
          "type": "bool"
        }
      ],
      "stateMutability": "view",
      "type": "function"
    },
    {
      "inputs": [
        {
          "internalType": "address",
          "name": "account",
          "type": "address"
        },
        {
          "internalType": "uint256",
          "name": "timestamp",
          "type": "uint256"
        }
      ],
      "name": "isAccountSolvent",
      "outputs": [
        {
          "internalType": "bool",
          "name": "isSolvent",
          "type": "bool"
        }
      ],
      "stateMutability": "view",
      "type": "function"
    },
    {
      "inputs": [
        {
          "internalType": "address",
          "name": "account",
          "type": "address"
        }
      ],
      "name": "isAccountSolventNow",
      "outputs": [
        {
          "internalType": "bool",
          "name": "isSolvent",
          "type": "bool"
        }
      ],
      "stateMutability": "view",
      "type": "function"
    },
    {
      "inputs": [
        {
          "internalType": "address",
          "name": "operator",
          "type": "address"
        },
        {
          "internalType": "address",
          "name": "tokenHolder",
          "type": "address"
        }
      ],
      "name": "isOperatorFor",
      "outputs": [
        {
          "internalType": "bool",
          "name": "",
          "type": "bool"
        }
      ],
      "stateMutability": "view",
      "type": "function"
    },
    {
      "inputs": [
        {
          "internalType": "bytes32",
          "name": "id",
          "type": "bytes32"
        },
        {
          "internalType": "bytes",
          "name": "liquidationTypeData",
          "type": "bytes"
        },
        {
          "internalType": "address",
          "name": "liquidatorAccount",
          "type": "address"
        },
        {
          "internalType": "bool",
          "name": "useDefaultRewardAccount",
          "type": "bool"
        },
        {
          "internalType": "address",
          "name": "targetAccount",
          "type": "address"
        },
        {
          "internalType": "uint256",
          "name": "rewardAmount",
          "type": "uint256"
        },
        {
          "internalType": "int256",
          "name": "targetAccountBalanceDelta",
          "type": "int256"
        }
      ],
      "name": "makeLiquidationPayoutsV2",
      "outputs": [],
      "stateMutability": "nonpayable",
      "type": "function"
    },
    {
      "inputs": [
        {
          "internalType": "uint256",
          "name": "amount",
          "type": "uint256"
        }
      ],
      "name": "mint",
      "outputs": [],
      "stateMutability": "nonpayable",
      "type": "function"
    },
    {
      "inputs": [],
      "name": "name",
      "outputs": [
        {
          "internalType": "string",
          "name": "",
          "type": "string"
        }
      ],
      "stateMutability": "view",
      "type": "function"
    },
    {
      "inputs": [
        {
          "internalType": "address",
          "name": "account",
          "type": "address"
        },
        {
          "internalType": "address",
          "name": "spender",
          "type": "address"
        },
        {
          "internalType": "uint256",
          "name": "amount",
          "type": "uint256"
        }
      ],
      "name": "operationApprove",
      "outputs": [],
      "stateMutability": "nonpayable",
      "type": "function"
    },
    {
      "inputs": [
        {
          "internalType": "address",
          "name": "account",
          "type": "address"
        },
        {
          "internalType": "uint256",
          "name": "amount",
          "type": "uint256"
        }
      ],
      "name": "operationDowngrade",
      "outputs": [],
      "stateMutability": "nonpayable",
      "type": "function"
    },
    {
      "inputs": [
        {
          "internalType": "address",
          "name": "spender",
          "type": "address"
        },
        {
          "internalType": "address",
          "name": "recipient",
          "type": "address"
        },
        {
          "internalType": "uint256",
          "name": "amount",
          "type": "uint256"
        },
        {
          "internalType": "bytes",
          "name": "userData",
          "type": "bytes"
        }
      ],
      "name": "operationSend",
      "outputs": [],
      "stateMutability": "nonpayable",
      "type": "function"
    },
    {
      "inputs": [
        {
          "internalType": "address",
          "name": "account",
          "type": "address"
        },
        {
          "internalType": "address",
          "name": "spender",
          "type": "address"
        },
        {
          "internalType": "address",
          "name": "recipient",
          "type": "address"
        },
        {
          "internalType": "uint256",
          "name": "amount",
          "type": "uint256"
        }
      ],
      "name": "operationTransferFrom",
      "outputs": [],
      "stateMutability": "nonpayable",
      "type": "function"
    },
    {
      "inputs": [
        {
          "internalType": "address",
          "name": "account",
          "type": "address"
        },
        {
          "internalType": "uint256",
          "name": "amount",
          "type": "uint256"
        }
      ],
      "name": "operationUpgrade",
      "outputs": [],
      "stateMutability": "nonpayable",
      "type": "function"
    },
    {
      "inputs": [
        {
          "internalType": "address",
          "name": "account",
          "type": "address"
        },
        {
          "internalType": "uint256",
          "name": "amount",
          "type": "uint256"
        },
        {
          "internalType": "bytes",
          "name": "data",
          "type": "bytes"
        },
        {
          "internalType": "bytes",
          "name": "operatorData",
          "type": "bytes"
        }
      ],
      "name": "operatorBurn",
      "outputs": [],
      "stateMutability": "nonpayable",
      "type": "function"
    },
    {
      "inputs": [
        {
          "internalType": "address",
          "name": "sender",
          "type": "address"
        },
        {
          "internalType": "address",
          "name": "recipient",
          "type": "address"
        },
        {
          "internalType": "uint256",
          "name": "amount",
          "type": "uint256"
        },
        {
          "internalType": "bytes",
          "name": "data",
          "type": "bytes"
        },
        {
          "internalType": "bytes",
          "name": "operatorData",
          "type": "bytes"
        }
      ],
      "name": "operatorSend",
      "outputs": [],
      "stateMutability": "nonpayable",
      "type": "function"
    },
    {
      "inputs": [],
      "name": "proxiableUUID",
      "outputs": [
        {
          "internalType": "bytes32",
          "name": "",
          "type": "bytes32"
        }
      ],
      "stateMutability": "pure",
      "type": "function"
    },
    {
      "inputs": [
        {
          "internalType": "address",
          "name": "account",
          "type": "address"
        },
        {
          "internalType": "uint256",
          "name": "timestamp",
          "type": "uint256"
        }
      ],
      "name": "realtimeBalanceOf",
      "outputs": [
        {
          "internalType": "int256",
          "name": "availableBalance",
          "type": "int256"
        },
        {
          "internalType": "uint256",
          "name": "deposit",
          "type": "uint256"
        },
        {
          "internalType": "uint256",
          "name": "owedDeposit",
          "type": "uint256"
        }
      ],
      "stateMutability": "view",
      "type": "function"
    },
    {
      "inputs": [
        {
          "internalType": "address",
          "name": "account",
          "type": "address"
        }
      ],
      "name": "realtimeBalanceOfNow",
      "outputs": [
        {
          "internalType": "int256",
          "name": "availableBalance",
          "type": "int256"
        },
        {
          "internalType": "uint256",
          "name": "deposit",
          "type": "uint256"
        },
        {
          "internalType": "uint256",
          "name": "owedDeposit",
          "type": "uint256"
        },
        {
          "internalType": "uint256",
          "name": "timestamp",
          "type": "uint256"
        }
      ],
      "stateMutability": "view",
      "type": "function"
    },
    {
      "inputs": [
        {
          "internalType": "address",
          "name": "operator",
          "type": "address"
        }
      ],
      "name": "revokeOperator",
      "outputs": [],
      "stateMutability": "nonpayable",
      "type": "function"
    },
    {
      "inputs": [
        {
          "internalType": "address",
          "name": "account",
          "type": "address"
        },
        {
          "internalType": "address",
          "name": "spender",
          "type": "address"
        },
        {
          "internalType": "uint256",
          "name": "amount",
          "type": "uint256"
        }
      ],
      "name": "selfApproveFor",
      "outputs": [],
      "stateMutability": "nonpayable",
      "type": "function"
    },
    {
      "inputs": [
        {
          "internalType": "address",
          "name": "account",
          "type": "address"
        },
        {
          "internalType": "uint256",
          "name": "amount",
          "type": "uint256"
        },
        {
          "internalType": "bytes",
          "name": "userData",
          "type": "bytes"
        }
      ],
      "name": "selfBurn",
      "outputs": [],
      "stateMutability": "nonpayable",
      "type": "function"
    },
    {
      "inputs": [
        {
          "internalType": "address",
          "name": "account",
          "type": "address"
        },
        {
          "internalType": "uint256",
          "name": "amount",
          "type": "uint256"
        },
        {
          "internalType": "bytes",
          "name": "userData",
          "type": "bytes"
        }
      ],
      "name": "selfMint",
      "outputs": [],
      "stateMutability": "nonpayable",
      "type": "function"
    },
    {
      "inputs": [
        {
          "internalType": "address",
          "name": "holder",
          "type": "address"
        },
        {
          "internalType": "address",
          "name": "spender",
          "type": "address"
        },
        {
          "internalType": "address",
          "name": "recipient",
          "type": "address"
        },
        {
          "internalType": "uint256",
          "name": "amount",
          "type": "uint256"
        }
      ],
      "name": "selfTransferFrom",
      "outputs": [],
      "stateMutability": "nonpayable",
      "type": "function"
    },
    {
      "inputs": [
        {
          "internalType": "address",
          "name": "recipient",
          "type": "address"
        },
        {
          "internalType": "uint256",
          "name": "amount",
          "type": "uint256"
        },
        {
          "internalType": "bytes",
          "name": "data",
          "type": "bytes"
        }
      ],
      "name": "send",
      "outputs": [],
      "stateMutability": "nonpayable",
      "type": "function"
    },
    {
      "inputs": [
        {
          "internalType": "address",
          "name": "account",
          "type": "address"
        },
        {
          "internalType": "int256",
          "name": "delta",
          "type": "int256"
        }
      ],
      "name": "settleBalance",
      "outputs": [],
      "stateMutability": "nonpayable",
      "type": "function"
    },
    {
      "inputs": [],
      "name": "symbol",
      "outputs": [
        {
          "internalType": "string",
          "name": "",
          "type": "string"
        }
      ],
      "stateMutability": "view",
      "type": "function"
    },
    {
      "inputs": [
        {
          "internalType": "bytes32",
          "name": "id",
          "type": "bytes32"
        },
        {
          "internalType": "uint256",
          "name": "dataLength",
          "type": "uint256"
        }
      ],
      "name": "terminateAgreement",
      "outputs": [],
      "stateMutability": "nonpayable",
      "type": "function"
    },
    {
      "inputs": [],
      "name": "totalSupply",
      "outputs": [
        {
          "internalType": "uint256",
          "name": "",
          "type": "uint256"
        }
      ],
      "stateMutability": "view",
      "type": "function"
    },
    {
      "inputs": [
        {
          "internalType": "address",
          "name": "recipient",
          "type": "address"
        },
        {
          "internalType": "uint256",
          "name": "amount",
          "type": "uint256"
        }
      ],
      "name": "transfer",
      "outputs": [
        {
          "internalType": "bool",
          "name": "",
          "type": "bool"
        }
      ],
      "stateMutability": "nonpayable",
      "type": "function"
    },
    {
      "inputs": [
        {
          "internalType": "address",
          "name": "recipient",
          "type": "address"
        }
      ],
      "name": "transferAll",
      "outputs": [],
      "stateMutability": "nonpayable",
      "type": "function"
    },
    {
      "inputs": [
        {
          "internalType": "address",
          "name": "holder",
          "type": "address"
        },
        {
          "internalType": "address",
          "name": "recipient",
          "type": "address"
        },
        {
          "internalType": "uint256",
          "name": "amount",
          "type": "uint256"
        }
      ],
      "name": "transferFrom",
      "outputs": [
        {
          "internalType": "bool",
          "name": "",
          "type": "bool"
        }
      ],
      "stateMutability": "nonpayable",
      "type": "function"
    },
    {
      "inputs": [
        {
          "internalType": "bytes32",
          "name": "id",
          "type": "bytes32"
        },
        {
          "internalType": "bytes32[]",
          "name": "data",
          "type": "bytes32[]"
        }
      ],
      "name": "updateAgreementData",
      "outputs": [],
      "stateMutability": "nonpayable",
      "type": "function"
    },
    {
      "inputs": [
        {
          "internalType": "address",
          "name": "account",
          "type": "address"
        },
        {
          "internalType": "uint256",
          "name": "slotId",
          "type": "uint256"
        },
        {
          "internalType": "bytes32[]",
          "name": "slotData",
          "type": "bytes32[]"
        }
      ],
      "name": "updateAgreementStateSlot",
      "outputs": [],
      "stateMutability": "nonpayable",
      "type": "function"
    },
    {
      "inputs": [
        {
          "internalType": "address",
          "name": "newAddress",
          "type": "address"
        }
      ],
      "name": "updateCode",
      "outputs": [],
      "stateMutability": "nonpayable",
      "type": "function"
    },
    {
      "inputs": [
        {
          "internalType": "uint256",
          "name": "amount",
          "type": "uint256"
        }
      ],
      "name": "upgrade",
      "outputs": [],
      "stateMutability": "nonpayable",
      "type": "function"
    },
    {
      "inputs": [
        {
          "internalType": "address",
          "name": "to",
          "type": "address"
        },
        {
          "internalType": "uint256",
          "name": "amount",
          "type": "uint256"
        },
        {
          "internalType": "bytes",
          "name": "data",
          "type": "bytes"
        }
      ],
      "name": "upgradeTo",
      "outputs": [],
      "stateMutability": "nonpayable",
      "type": "function"
    }
  ],
  "transactionHash": "0xe8835517e454224e61d42c89dbee16b271dd37fa6e0d4bb2ed942f95124a2f32",
  "args": [
    "0xEB796bdb90fFA0f28255275e16936D25d3418603"
  ],
  "numDeployments": 1,
  "solcInputHash": "179b1c4559372c00a9cdffb48240db99",
  "bytecode": "0x60a06040523480156200001157600080fd5b506040516200499b3803806200499b833981016040819052620000349162000046565b6001600160a01b031660805262000078565b6000602082840312156200005957600080fd5b81516001600160a01b03811681146200007157600080fd5b9392505050565b608051614897620001046000396000818161045301528181610b3301528181610ba201528181610e4501528181610f840152818161105301528181611308015281816114530152818161161b01528181611aa901528181611b5a01528181611bc201528181611c4a01528181612435015281816124cc015281816135af01526137eb01526148976000f3fe608060405234801561001057600080fd5b50600436106103835760003560e01c806366a12fb6116101de578063a9059cbb1161010f578063d95b6371116100ad578063ee719bc81161007c578063ee719bc81461080c578063fad8b32a1461081d578063fc673c4f14610830578063fe9d93031461084357600080fd5b8063d95b63711461077f578063d9d078d614610792578063dd62ed3e146107a5578063eb3537cc146107de57600080fd5b8063c68d4283116100e9578063c68d428314610733578063ca0c1e7f14610746578063ca78946414610759578063cf97256d1461076c57600080fd5b8063a9059cbb146106fa578063b84cdd4a1461070d578063bb0d196e1461072057600080fd5b80639903ad381161017c578063a0712d6811610156578063a0712d68146106ae578063a1b2bf8b146106c1578063a3a7e7f3146106d4578063a457c2d7146106e757600080fd5b80639903ad38146106805780639bd9bbc6146106885780639d8767411461069b57600080fd5b806379359f6f116101b857806379359f6f1461063f57806383ba252514610652578063959b8c3f1461066557806395d89b411461067857600080fd5b806366a12fb6146106065780636c2d9f2f1461061957806370a082311461062c57600080fd5b8063313ce567116102b85780634b61cc3311610256578063556f0dc711610230578063556f0dc7146105c65780635b9d09cc146105cd57806362aa5287146105e057806362ad1b83146105f357600080fd5b80634b61cc331461057857806350d75d251461059857806352d1902d146105a057600080fd5b806341b706be1161029257806341b706be1461052c57806342fe09801461053f57806345977d0314610552578063469519541461056557600080fd5b8063313ce567146104f7578063386fa22114610506578063395093511461051957600080fd5b806318160ddd1161032557806323b872dd116102ff57806323b872dd1461048b578063245887fc1461049e57806327048397146104b15780632ec8eec7146104c457600080fd5b806318160ddd1461042c5780631863e8091461043e57806320bc44251461045157600080fd5b8063095ea7b311610361578063095ea7b3146103d057806311bcc81e146103f357806312a6a3f81461040657806316d055d61461041957600080fd5b806306e485381461038857806306fdde03146103a6578063090c415e146103bb575b600080fd5b610390610856565b60405161039d9190613a05565b60405180910390f35b6103ae610867565b60405161039d9190613aa2565b6103ce6103c9366004613b16565b6108f9565b005b6103e36103de366004613b72565b6109e4565b604051901515815260200161039d565b6103ce610401366004613b9e565b6109fb565b6103ce610414366004613bb7565b610a2a565b6103ce610427366004613c03565b610b31565b6003545b60405190815260200161039d565b6103ce61044c366004613d19565b610b8d565b7f00000000000000000000000000000000000000000000000000000000000000005b6040516001600160a01b03909116815260200161039d565b6103e3610499366004613dac565b610e2d565b6103ce6104ac366004613b72565b610e43565b6103ce6104bf366004613ded565b610ebc565b6104d76104d2366004613e0f565b610f7c565b60408051948552602085019390935291830152606082015260800161039d565b6040516012815260200161039d565b610390610514366004613e0f565b61101f565b6103e3610527366004613b72565b6110c2565b6103ce61053a366004613c03565b6110fe565b6103ce61054d366004613e6e565b61112a565b6103ce610560366004613b9e565b6112d1565b6103ce610573366004613e0f565b6112fd565b61058b610586366004613f09565b61134f565b60405161039d9190613f4f565b6104736113d0565b7f6bfbb132610e56cb96575dba244667b9d6dbfeffe22b68a79fa16f2d18eb0019610430565b6001610430565b6103ce6105db366004613f87565b6113fa565b6103ce6105ee366004613dac565b611451565b6103ce610601366004613fd7565b6114aa565b6103ce610614366004613dac565b611558565b61058b610627366004614076565b611578565b61043061063a366004613e0f565b6115ea565b6103e361064d366004613e0f565b611613565b6103ce610660366004613b72565b61169b565b6103ce610673366004613e0f565b6116c7565b6103ae611718565b6103ce611727565b6103ce610696366004613f87565b611830565b6103ce6106a93660046140ab565b611884565b6103ce6106bc366004613b9e565b6118c4565b6103ce6106cf366004613bb7565b611911565b6103ce6106e2366004613e0f565b6119df565b6103e36106f5366004613b72565b6119f3565b6103e3610708366004613b72565b611a42565b6103e361071b366004613b72565b611a50565b6103e361072e366004613e0f565b611aa1565b6103ce6107413660046140ab565b611b29565b6103ce610754366004614104565b611b58565b6103ce610767366004613b72565b611bc0565b6103ce61077a366004613b72565b611c35565b6103e361078d366004614170565b611d1e565b6103e36107a0366004613b72565b611d2c565b6104306107b3366004614170565b6001600160a01b03918216600090815260116020908152604080832093909416825291909152205490565b6107f16107ec366004613b72565b611d46565b6040805193845260208401929092529082015260600161039d565b600e546001600160a01b0316610473565b6103ce61082b366004613e0f565b611e80565b6103ce61083e3660046141a9565b611ed1565b6103ce6108513660046141f1565b611f72565b60606108626012611fc3565b905090565b6060600f805461087690614230565b80601f01602080910402602001604051908101604052809291908181526020018280546108a290614230565b80156108ef5780601f106108c4576101008083540402835291602001916108ef565b820191906000526020600020905b8154815290600101906020018083116108d257829003601f168201915b5050505050905090565b60408051608060208201819052600e60a08301526d41677265656d656e74537461746560901b60c083015233928201929092526001600160a01b038616606082015290810184905260009060e00160405160208183030381529060405280519060200120905061099c8184848080602002602001604051908101604052809392919081815260200183836020028082843760009201919091525061202992505050565b6040518481526001600160a01b0386169033907f30f416fa68fca014a0f334464c64b000ba53e99b6d2afdea9d5ca756372d5985906020015b60405180910390a35050505050565b60006109f133848461206a565b5060015b92915050565b610a2733333384604051806020016040528060008152506040518060200160405280600081525061211a565b50565b60408051606060208201819052600d60808301526c41677265656d656e744461746160981b60a083015233928201839052810185905260009060c00160408051601f1981840301815291905280516020909101209050610a8a81846122d4565b15610aa85760405163782a90fb60e11b815260040160405180910390fd5b610ae58185858080602002602001604051908101604052809392919081815260200183836020028082843760009201919091525061202992505050565b816001600160a01b03167f770ea40a13a4644573ed785e5c7116890709947918747febc5add46feb531e2d868686604051610b229392919061426a565b60405180910390a25050505050565b7f00000000000000000000000000000000000000000000000000000000000000006001600160a01b03163314610b7a5760405163c51efddd60e01b815260040160405180910390fd5b610b8684848484612310565b5050505050565b604051632329212160e21b81523360048201527f00000000000000000000000000000000000000000000000000000000000000006001600160a01b031690638ca4848490602401602060405180830381865afa158015610bf1573d6000803e3d6000fd5b505050506040513d601f19601f82011682018060405250810190610c1591906142c3565b610c325760405163327fd99160e21b815260040160405180910390fd5b6000610c3c612430565b90506001600160a01b038116610c4f5750845b600085610c5c5786610c5e565b815b905060008313610cfb57610c71836142f6565b610c7a85612575565b14610c8757610c87614312565b610c9084612575565b6001600160a01b03821660009081526002602052604081208054909190610cb8908490614328565b90915550506001600160a01b03851660009081526002602052604081208054859290610ce5908490614328565b90915550610cf690508582866125fc565b610dc5565b8515610d0957610d09614312565b82610d1385612575565b610d1d9190614328565b6001600160a01b03831660009081526002602052604081208054909190610d45908490614350565b90915550610d54905084612575565b6001600160a01b03881660009081526002602052604081208054909190610d7c908490614328565b90915550506001600160a01b03851660009081526002602052604081208054859290610da9908490614328565b90915550610dba90508288866125fc565b610dc58286856125fc565b846001600160a01b0316876001600160a01b0316336001600160a01b03167fb8381a3ce157650e06186e3e8f4dd4dc29236f2688b6eed1893d0a60d7c6386f8c8589898f604051610e1a959493929190614370565b60405180910390a4505050505050505050565b6000610e3b33858585612310565b949350505050565b7f00000000000000000000000000000000000000000000000000000000000000006001600160a01b03163314610e8c5760405163c51efddd60e01b815260040160405180910390fd5b610eb833838484604051806020016040528060008152506040518060200160405280600081525061211a565b5050565b60408051606060208201819052600d60808301526c41677265656d656e744461746160981b60a083015233928201839052810184905260009060c001604051602081830303815290604052805190602001209050610f1a81846122d4565b610f375760405163dae1880960e01b815260040160405180910390fd5b610f418184612641565b60405184815233907f71a63dc095de07aa5512ad57a7596a39516317e316981a1cd71000057be1537b9060200160405180910390a250505050565b6000806000807f00000000000000000000000000000000000000000000000000000000000000006001600160a01b031663bbe4fd506040518163ffffffff1660e01b8152600401602060405180830381865afa158015610fe0573d6000803e3d6000fd5b505050506040513d601f19601f8201168201806040525081019061100491906143a4565b90506110108582611d46565b91979096509094509092509050565b6001600160a01b038181166000908152600160205260409081902054905163c56a069d60e01b8152901960048201526060917f0000000000000000000000000000000000000000000000000000000000000000169063c56a069d90602401600060405180830381865afa15801561109a573d6000803e3d6000fd5b505050506040513d6000823e601f3d908101601f191682016040526109f591908101906143bd565b3360008181526011602090815260408083206001600160a01b038716845290915281205490916109f19185906110f990869061446f565b61206a565b33301461111e57604051630fff4cc960e31b815260040160405180910390fd5b610b8683858484612310565b600054610100900460ff161580801561114a5750600054600160ff909116105b806111645750303b158015611164575060005460ff166001145b6111cc5760405162461bcd60e51b815260206004820152602e60248201527f496e697469616c697a61626c653a20636f6e747261637420697320616c72656160448201526d191e481a5b9a5d1a585b1a5e995960921b60648201526084015b60405180910390fd5b6000805460ff1916600117905580156111ef576000805461ff0019166101001790555b600e805460ff8816600160a01b0274ffffffffffffffffffffffffffffffffffffffffff199091166001600160a01b038a1617179055600f6112328587836144d0565b5060106112408385836144d0565b5061124a30612662565b60405160008082529081907fddf252ad1be2c89b69c2b068fc378daa952ba7f163c4a11628f55a4df523b3ef9060200160405180910390a380156112c8576000805461ff0019169055604051600181527f7f26b83ff96e1f2b6a682f133852f6798a09c465da95921460cefb38474024989060200160405180910390a15b50505050505050565b610a27333333846040518060200160405280600081525060405180602001604052806000815250612790565b336001600160a01b037f000000000000000000000000000000000000000000000000000000000000000016146113465760405163263dcdc160e21b815260040160405180910390fd5b610a2781612940565b60408051608060208201819052600e60a08301526d41677265656d656e74537461746560901b60c08301526001600160a01b038088169383019390935291851660608281019190915291810184905260009060e0016040516020818303038152906040528051906020012090506113c68184612b7a565b9695505050505050565b60006108627f360894a13ba1a3210667c828492db98dca3e2076cc3735a920a3ca505d382bbc5490565b61144b3333868686868080601f016020809104026020016040519081016040528093929190818152602001838380828437600092018290525060408051602081019091529081529250612790915050565b50505050565b7f00000000000000000000000000000000000000000000000000000000000000006001600160a01b0316331461149a5760405163c51efddd60e01b815260040160405180910390fd5b6114a583838361206a565b505050565b336114b76012828a612c0a565b6114d45760405163f7f0222760e01b815260040160405180910390fd5b61154e8189898989898080601f01602080910402602001604051908101604052809392919081815260200183838082843760009201919091525050604080516020601f8d018190048102820181019092528b815292508b91508a908190840183828082843760009201919091525060019250612cb3915050565b5050505050505050565b33301461149a57604051630fff4cc960e31b815260040160405180910390fd5b60408051606060208201819052600d60808301526c41677265656d656e744461746160981b60a08301526001600160a01b0386169282019290925280820184905260009060c0016040516020818303038152906040528051906020012090506115e18184612b7a565b95945050505050565b6000806115f683610f7c565b505050905060008112611609578061160c565b60005b9392505050565b60006109f5827f00000000000000000000000000000000000000000000000000000000000000006001600160a01b031663bbe4fd506040518163ffffffff1660e01b8152600401602060405180830381865afa158015611677573d6000803e3d6000fd5b505050506040513d601f19601f820116820180604052508101906107a091906143a4565b610eb833338484604051806020016040528060008152506040518060200160405280600081525061211a565b336116d460128284612d2c565b806001600160a01b0316826001600160a01b03167ff4caeb2d6ca8932a215a353d0703c326ec2d81fc68170f320eb2ab49e9df61f960405160405180910390a35050565b60606010805461087690614230565b600054610100900460ff16158080156117475750600054600160ff909116105b806117615750303b158015611761575060005460ff166001145b6117c45760405162461bcd60e51b815260206004820152602e60248201527f496e697469616c697a61626c653a20636f6e747261637420697320616c72656160448201526d191e481a5b9a5d1a585b1a5e995960921b60648201526084016111c3565b6000805460ff1916600117905580156117e7576000805461ff0019166101001790555b8015610a27576000805461ff0019169055604051600181527f7f26b83ff96e1f2b6a682f133852f6798a09c465da95921460cefb3847402498906020015b60405180910390a150565b61144b3333868686868080601f01602080910402602001604051908101604052809392919081815260200183838082843760009201829052506040805160208101909152908152925060019150612cb39050565b3330146118a457604051630fff4cc960e31b815260040160405180910390fd5b6040805160008152602081019091526114a5903390859085908590612e30565b60408051600080825260208201909252610a279133918291859160005b6040519080825280601f01601f19166020018201604052801561190b576020820181803683370190505b50612efd565b60408051606060208201819052600d60808301526c41677265656d656e744461746160981b60a083015233928201839052810185905260009060c0016040516020818303038152906040528051906020012090506119a28185858080602002602001604051908101604052809392919081815260200183836020028082843760009201919091525061202992505050565b336001600160a01b03167f0c4c547b3a4fcaa5be8353b3111472b124155bccc86de811d4a481c9e6e9faca868686604051610b229392919061426a565b610eb83333836119ee336115ea565b612310565b60006109f133846110f9856040518060600160405280602a815260200161480b602a91393360009081526011602090815260408083206001600160a01b038d1684529091529020549190612fd7565b600061160c33338585612310565b600080600080611a608686611d46565b9250925092506000611a88828411611a79576000612575565b611a838385614590565b612575565b611a929085614328565b60001315979650505050505050565b60006109f5827f00000000000000000000000000000000000000000000000000000000000000006001600160a01b031663bbe4fd506040518163ffffffff1660e01b8152600401602060405180830381865afa158015611b05573d6000803e3d6000fd5b505050506040513d601f19601f8201168201806040525081019061071b91906143a4565b333014611b4957604051630fff4cc960e31b815260040160405180910390fd5b6114a5338484600085816118e1565b7f00000000000000000000000000000000000000000000000000000000000000006001600160a01b03163314611ba15760405163c51efddd60e01b815260040160405180910390fd5b61144b3385858585604051806020016040528060008152506001612cb3565b7f00000000000000000000000000000000000000000000000000000000000000006001600160a01b03163314611c095760405163c51efddd60e01b815260040160405180910390fd5b610eb8338384846040518060200160405280600081525060405180602001604052806000815250612790565b604051632329212160e21b81523360048201527f00000000000000000000000000000000000000000000000000000000000000006001600160a01b031690638ca4848490602401602060405180830381865afa158015611c99573d6000803e3d6000fd5b505050506040513d601f19601f82011682018060405250810190611cbd91906142c3565b611cda5760405163327fd99160e21b815260040160405180910390fd5b6001600160a01b038216600090815260026020526040902054611cfe908290614328565b6001600160a01b0390921660009081526002602052604090209190915550565b600061160c60128484612c0a565b600080611d398484611d46565b5050600013949350505050565b6001600160a01b038216600090815260026020526040812054908080611d6b8661101f565b905060005b8151811015611e77576000806000848481518110611d9057611d906145a3565b60209081029190910101516040516326cb922f60e21b81523060048201526001600160a01b038c81166024830152604482018c905290911690639b2e48bc90606401606060405180830381865afa158015611def573d6000803e3d6000fd5b505050506040513d601f19601f82011682018060405250810190611e1391906145b9565b91945092509050611e24828861446f565b9650611e30818761446f565b9550611e4d818311611e43576000612575565b611a838284614590565b611e57848a614328565b611e619190614350565b975050505080611e70906145e7565b9050611d70565b50509250925092565b33611e8d60128284613003565b806001600160a01b0316826001600160a01b03167f50546e66e5f44d728365dc3908c63bc5cfeeab470722c1677e3073a6ac294aa160405160405180910390a35050565b33611ede60128289612c0a565b611efb5760405163f7f0222760e01b815260040160405180910390fd5b6112c88188898989898080601f01602080910402602001604051908101604052809392919081815260200183838082843760009201919091525050604080516020601f8d018190048102820181019092528b815292508b91508a908190840183828082843760009201919091525061211a92505050565b6114a53333338686868080601f01602080910402602001604051908101604052809392919081815260200183838082843760009201829052506040805160208101909152908152925061211a915050565b60608160000180548060200260200160405190810160405280929190818152602001828054801561201d57602002820191906000526020600020905b81546001600160a01b03168152600190910190602001808311611fff575b50505050509050919050565b60005b81518110156114a5576000828281518110612049576120496145a3565b6020026020010151905080828501555080612063906145e7565b905061202c565b6001600160a01b03831661209157604051638163862760e01b815260040160405180910390fd5b6001600160a01b0382166120b8576040516337c1c09d60e21b815260040160405180910390fd5b6001600160a01b0383811660008181526011602090815260408083209487168084529482529182902085905590518481527f8c5be1e5ebec7d5bd14f71427d1e84f3dd0314c0f7b2291e5b200ac8c7c3b92591015b60405180910390a3505050565b600e546001600160a01b031661214357604051637bce7b2b60e11b815260040160405180910390fd5b60008061214f856130fb565b915091506121608888838787612e30565b600e546040516370a0823160e01b81523060048201526000916001600160a01b0316906370a0823190602401602060405180830381865afa1580156121a9573d6000803e3d6000fd5b505050506040513d601f19601f820116820180604052508101906121cd91906143a4565b600e549091506121e7906001600160a01b031688856131b7565b600e546040516370a0823160e01b81523060048201526000916001600160a01b0316906370a0823190602401602060405180830381865afa158015612230573d6000803e3d6000fd5b505050506040513d601f19601f8201168201806040525081019061225491906143a4565b905060006122628284614590565b905080851461228457604051631c7c26d360e31b815260040160405180910390fd5b896001600160a01b03167f3bc27981aebbb57f9247dc00fde9d6cd91e4b230083fec3238fedbcba1f9ab3d856040516122bf91815260200190565b60405180910390a25050505050505050505050565b6000805b82811015612306578381015480156122f5576001925050506109f5565b506122ff816145e7565b90506122d8565b5060009392505050565b60006001600160a01b0384166123395760405163eecd6c9b60e01b815260040160405180910390fd5b6001600160a01b0383166123605760405163e219bd3960e01b815260040160405180910390fd5b6000339050612391818686866040518060200160405280600081525060405180602001604052806000815250613247565b846001600160a01b0316866001600160a01b0316146124245761242485876110f9866040518060600160405280602d8152602001614835602d9139601160008c6001600160a01b03166001600160a01b0316815260200190815260200160002060008d6001600160a01b03166001600160a01b0316815260200190815260200160002054612fd79092919063ffffffff16565b50600195945050505050565b6000807f00000000000000000000000000000000000000000000000000000000000000006001600160a01b031663289b3c0d6040518163ffffffff1660e01b8152600401602060405180830381865afa158015612491573d6000803e3d6000fd5b505050506040513d601f19601f820116820180604052508101906124b59190614600565b604051638369a0f160e01b81526001600160a01b037f0000000000000000000000000000000000000000000000000000000000000000811660048301523060248301527f9f60ae461adf056670e03ae602566409933242392cb06744f5747c9f38b05d09604483015291925090821690638369a0f190606401602060405180830381865afa15801561254b573d6000803e3d6000fd5b505050506040513d601f19601f8201168201806040525081019061256f9190614600565b91505090565b60007f7fffffffffffffffffffffffffffffffffffffffffffffffffffffffffffffff8211156125f85760405162461bcd60e51b815260206004820152602860248201527f53616665436173743a2076616c756520646f65736e27742066697420696e2061604482015267371034b73a191a9b60c11b60648201526084016111c3565b5090565b816001600160a01b0316836001600160a01b03167fddf252ad1be2c89b69c2b068fc378daa952ba7f163c4a11628f55a4df523b3ef8360405161210d91815260200190565b60005b818110156114a55760008382015561265b816145e7565b9050612644565b6040516329965a1d60e01b81526001600160a01b03821660048201527fac7fbab5f54a3ca8194167523c6753bfeb96a445279294b6125b68cce21770546024820152306044820152731820a4b7618bde71dce8cdc73aab6c95905fad24906329965a1d90606401600060405180830381600087803b1580156126e357600080fd5b505af11580156126f7573d6000803e3d6000fd5b50506040516329965a1d60e01b81526001600160a01b03841660048201527faea199e31a596269b42cdafd93407f14436db6e4cad65417994c2eb37381e05a6024820152306044820152731820a4b7618bde71dce8cdc73aab6c95905fad2492506329965a1d9150606401600060405180830381600087803b15801561277c57600080fd5b505af1158015610b86573d6000803e3d6000fd5b600e546001600160a01b03166127b957604051637bce7b2b60e11b815260040160405180910390fd5b6000806127c5856130fb565b600e546040516370a0823160e01b81523060048201529294509092506000916001600160a01b03909116906370a0823190602401602060405180830381865afa158015612816573d6000803e3d6000fd5b505050506040513d601f19601f8201168201806040525081019061283a91906143a4565b600e54909150612855906001600160a01b03168930866132f8565b600e546040516370a0823160e01b81523060048201526000916001600160a01b0316906370a0823190602401602060405180830381865afa15801561289e573d6000803e3d6000fd5b505050506040513d601f19601f820116820180604052508101906128c291906143a4565b905060006128d08383614590565b90508085146128f257604051631c7c26d360e31b815260040160405180910390fd5b6129058b8a868a51600014158b8b612efd565b886001600160a01b03167f25ca84076773b0455db53621c459ddc84fe40840e4932a62706a032566f399df856040516122bf91815260200190565b600061296a7f360894a13ba1a3210667c828492db98dca3e2076cc3735a920a3ca505d382bbc5490565b6001600160a01b0316036129c05760405162461bcd60e51b815260206004820152601d60248201527f5555505350726f786961626c653a206e6f742075706772616461626c6500000060448201526064016111c3565b806001600160a01b03166352d1902d6040518163ffffffff1660e01b8152600401602060405180830381865afa1580156129fe573d6000803e3d6000fd5b505050506040513d601f19601f82011682018060405250810190612a2291906143a4565b7f6bfbb132610e56cb96575dba244667b9d6dbfeffe22b68a79fa16f2d18eb001914612a9c5760405162461bcd60e51b815260206004820152602360248201527f5555505350726f786961626c653a206e6f7420636f6d70617469626c65206c6f60448201526267696360e81b60648201526084016111c3565b6001600160a01b0381163003612af45760405162461bcd60e51b815260206004820152601960248201527f5555505350726f786961626c653a2070726f7879206c6f6f700000000000000060448201526064016111c3565b612b1c817f360894a13ba1a3210667c828492db98dca3e2076cc3735a920a3ca505d382bbc55565b7fe011bc04c286c344a8fcbb8de77f953da762c3e25d8cdea984147fc4168a5dcc7f6bfbb132610e56cb96575dba244667b9d6dbfeffe22b68a79fa16f2d18eb0019604080519182526001600160a01b038416602083015201611825565b60608167ffffffffffffffff811115612b9557612b95613c54565b604051908082528060200260200182016040528015612bbe578160200160208202803683370190505b50905060005b82811015612c0357600081850154905080838381518110612be757612be76145a3565b602090810291909101015250612bfc816145e7565b9050612bc4565b5092915050565b6000816001600160a01b0316836001600160a01b03161480612c7957506001600160a01b038316600090815260018501602052604090205460ff168015612c7957506001600160a01b03808316600090815260038601602090815260408083209387168352929052205460ff16155b80610e3b57506001600160a01b03808316600090815260028601602090815260408083209387168352929052205460ff1690509392505050565b6001600160a01b038616612cda5760405163eecd6c9b60e01b815260040160405180910390fd5b6001600160a01b038516612d015760405163e219bd3960e01b815260040160405180910390fd5b612d0f878787878787613330565b612d1d878787878787613247565b6112c887878787878787613457565b806001600160a01b0316826001600160a01b031603612da35760405162461bcd60e51b815260206004820152602d60248201527f4552433737374f70657261746f72733a20617574686f72697a696e672073656c60448201526c331030b99037b832b930ba37b960991b60648201526084016111c3565b6001600160a01b038116600090815260018401602052604090205460ff1615612df9576001600160a01b03918216600090815260039390930160209081526040808520929093168452529020805460ff19169055565b6001600160a01b0380831660009081526002850160209081526040808320938516835292905220805460ff19166001179055505050565b6001600160a01b038416612e5757604051632e8aac6160e21b815260040160405180910390fd5b612e6685856000868686613330565b612e7084846135a7565b836001600160a01b0316856001600160a01b03167fa78a9be3a7b862d26933ad85fb11d80ef66b8f972d7cbba06621d583943a4098858585604051612eb79392919061461d565b60405180910390a36040518381526000906001600160a01b038616907fddf252ad1be2c89b69c2b068fc378daa952ba7f163c4a11628f55a4df523b3ef906020016109d5565b6001600160a01b038516612f2457604051630d24315760e01b815260040160405180910390fd5b612f2e85856136b7565b612f3e8660008787868689613457565b846001600160a01b0316866001600160a01b03167f2fe5be0146f74c5bce36c0b80911af6c7d86ff27e89d5cfa61fc681327954e5d868585604051612f859392919061461d565b60405180910390a36040518481526001600160a01b038616906000907fddf252ad1be2c89b69c2b068fc378daa952ba7f163c4a11628f55a4df523b3ef906020015b60405180910390a3505050505050565b60008184841115612ffb5760405162461bcd60e51b81526004016111c39190613aa2565b505050900390565b336001600160a01b0382160361306e5760405162461bcd60e51b815260206004820152602a60248201527f4552433737374f70657261746f72733a207265766f6b696e672073656c662061604482015269399037b832b930ba37b960b11b60648201526084016111c3565b6001600160a01b038116600090815260018401602052604090205460ff16156130c8576001600160a01b0380831660009081526003850160209081526040808320938516835292905220805460ff19166001179055505050565b6001600160a01b03918216600090815260029390930160209081526040808520929093168452529020805460ff19169055565b600e54600090819081906012600160a01b90910460ff16101561315a57600e5461313090600160a01b900460ff166012614648565b61313b90600a614745565b90506131478185614754565b92506131538184614776565b91506131b1565b600e546012600160a01b90910460ff1611156131aa57600e5461318990601290600160a01b900460ff16614648565b61319490600a614745565b90506131a08185614776565b92508391506131b1565b8391508192505b50915091565b6040516001600160a01b0383166024820152604481018290526114a590849063a9059cbb60e01b906064015b60408051601f198184030181529190526020810180517bffffffffffffffffffffffffffffffffffffffffffffffffffffffff167fffffffff0000000000000000000000000000000000000000000000000000000090931692909217909152613711565b61325a858561325586612575565b6137e3565b836001600160a01b0316856001600160a01b0316876001600160a01b03167f06b541ddaa720db2b10a4d0cdac39b8d360425fc073085fac19bc826146779878686866040516132ab9392919061461d565b60405180910390a4836001600160a01b0316856001600160a01b03167fddf252ad1be2c89b69c2b068fc378daa952ba7f163c4a11628f55a4df523b3ef85604051612fc791815260200190565b6040516001600160a01b038085166024830152831660448201526064810182905261144b9085906323b872dd60e01b906084016131e3565b60405163555ddc6560e11b81526001600160a01b03861660048201527f29ddb589b1fb5fc7cf394961c1adf5f8c6454761adf795e67fe149f658abe8956024820152600090731820a4b7618bde71dce8cdc73aab6c95905fad249063aabbb8ca90604401602060405180830381865afa1580156133b1573d6000803e3d6000fd5b505050506040513d601f19601f820116820180604052508101906133d59190614600565b90506001600160a01b038116156112c857604051633ad5cbc160e11b81526001600160a01b038216906375ab97829061341c908a908a908a908a908a908a90600401614795565b600060405180830381600087803b15801561343657600080fd5b505af115801561344a573d6000803e3d6000fd5b5050505050505050505050565b60405163555ddc6560e11b81526001600160a01b03861660048201527fb281fc8c12954d22544db45de3159a39272895b169a852b314f9cc762e44c53b6024820152600090731820a4b7618bde71dce8cdc73aab6c95905fad249063aabbb8ca90604401602060405180830381865afa1580156134d8573d6000803e3d6000fd5b505050506040513d601f19601f820116820180604052508101906134fc9190614600565b90506001600160a01b03811615613578576040516223de2960e01b81526001600160a01b038216906223de2990613541908b908b908b908b908b908b90600401614795565b600060405180830381600087803b15801561355b57600080fd5b505af115801561356f573d6000803e3d6000fd5b5050505061154e565b811561154e576001600160a01b0386163b1561154e5760405163fe737d0560e01b815260040160405180910390fd5b600061362f837f00000000000000000000000000000000000000000000000000000000000000006001600160a01b031663bbe4fd506040518163ffffffff1660e01b8152600401602060405180830381865afa15801561360b573d6000803e3d6000fd5b505050506040513d601f19601f820116820180604052508101906107ec91906143a4565b5050905061363c82612575565b81121561365c5760405163043b37d160e21b815260040160405180910390fd5b61366582612575565b6001600160a01b0384166000908152600260205260409020546136889190614350565b6001600160a01b0384166000908152600260205260409020556003546136af908390614590565b600355505050565b6136c081612575565b6001600160a01b0383166000908152600260205260409020546136e39190614328565b6001600160a01b03831660009081526002602052604090205560035461370a90829061446f565b6003555050565b6000613766826040518060400160405280602081526020017f5361666545524332303a206c6f772d6c6576656c2063616c6c206661696c6564815250856001600160a01b03166138e29092919063ffffffff16565b8051909150156114a5578080602001905181019061378491906142c3565b6114a55760405162461bcd60e51b815260206004820152602a60248201527f5361666545524332303a204552433230206f7065726174696f6e20646964206e6044820152691bdd081cdd58d8d9595960b21b60648201526084016111c3565b6000613847847f00000000000000000000000000000000000000000000000000000000000000006001600160a01b031663bbe4fd506040518163ffffffff1660e01b8152600401602060405180830381865afa15801561360b573d6000803e3d6000fd5b505090508181121561386c57604051632f4cb94160e01b815260040160405180910390fd5b6001600160a01b038416600090815260026020526040902054613890908390614350565b6001600160a01b0380861660009081526002602052604080822093909355908516815220546138c0908390614328565b6001600160a01b03909316600090815260026020526040902092909255505050565b6060610e3b848460008585600080866001600160a01b0316858760405161390991906147ee565b60006040518083038185875af1925050503d8060008114613946576040519150601f19603f3d011682016040523d82523d6000602084013e61394b565b606091505b509150915061395c87838387613967565b979650505050505050565b606083156139d65782516000036139cf576001600160a01b0385163b6139cf5760405162461bcd60e51b815260206004820152601d60248201527f416464726573733a2063616c6c20746f206e6f6e2d636f6e747261637400000060448201526064016111c3565b5081610e3b565b610e3b83838151156139eb5781518083602001fd5b8060405162461bcd60e51b81526004016111c39190613aa2565b6020808252825182820181905260009190848201906040850190845b81811015613a465783516001600160a01b031683529284019291840191600101613a21565b50909695505050505050565b60005b83811015613a6d578181015183820152602001613a55565b50506000910152565b60008151808452613a8e816020860160208601613a52565b601f01601f19169290920160200192915050565b60208152600061160c6020830184613a76565b6001600160a01b0381168114610a2757600080fd5b60008083601f840112613adc57600080fd5b50813567ffffffffffffffff811115613af457600080fd5b6020830191508360208260051b8501011115613b0f57600080fd5b9250929050565b60008060008060608587031215613b2c57600080fd5b8435613b3781613ab5565b935060208501359250604085013567ffffffffffffffff811115613b5a57600080fd5b613b6687828801613aca565b95989497509550505050565b60008060408385031215613b8557600080fd5b8235613b9081613ab5565b946020939093013593505050565b600060208284031215613bb057600080fd5b5035919050565b600080600060408486031215613bcc57600080fd5b83359250602084013567ffffffffffffffff811115613bea57600080fd5b613bf686828701613aca565b9497909650939450505050565b60008060008060808587031215613c1957600080fd5b8435613c2481613ab5565b93506020850135613c3481613ab5565b92506040850135613c4481613ab5565b9396929550929360600135925050565b634e487b7160e01b600052604160045260246000fd5b604051601f8201601f1916810167ffffffffffffffff81118282101715613c9357613c93613c54565b604052919050565b600082601f830112613cac57600080fd5b813567ffffffffffffffff811115613cc657613cc6613c54565b613cd9601f8201601f1916602001613c6a565b818152846020838601011115613cee57600080fd5b816020850160208301376000918101602001919091529392505050565b8015158114610a2757600080fd5b600080600080600080600060e0888a031215613d3457600080fd5b87359650602088013567ffffffffffffffff811115613d5257600080fd5b613d5e8a828b01613c9b565b9650506040880135613d6f81613ab5565b94506060880135613d7f81613d0b565b93506080880135613d8f81613ab5565b9699959850939692959460a0840135945060c09093013592915050565b600080600060608486031215613dc157600080fd5b8335613dcc81613ab5565b92506020840135613ddc81613ab5565b929592945050506040919091013590565b60008060408385031215613e0057600080fd5b50508035926020909101359150565b600060208284031215613e2157600080fd5b813561160c81613ab5565b60008083601f840112613e3e57600080fd5b50813567ffffffffffffffff811115613e5657600080fd5b602083019150836020828501011115613b0f57600080fd5b60008060008060008060808789031215613e8757600080fd5b8635613e9281613ab5565b9550602087013560ff81168114613ea857600080fd5b9450604087013567ffffffffffffffff80821115613ec557600080fd5b613ed18a838b01613e2c565b90965094506060890135915080821115613eea57600080fd5b50613ef789828a01613e2c565b979a9699509497509295939492505050565b60008060008060808587031215613f1f57600080fd5b8435613f2a81613ab5565b93506020850135613f3a81613ab5565b93969395505050506040820135916060013590565b6020808252825182820181905260009190848201906040850190845b81811015613a4657835183529284019291840191600101613f6b565b60008060008060608587031215613f9d57600080fd5b8435613fa881613ab5565b935060208501359250604085013567ffffffffffffffff811115613fcb57600080fd5b613b6687828801613e2c565b600080600080600080600060a0888a031215613ff257600080fd5b8735613ffd81613ab5565b9650602088013561400d81613ab5565b955060408801359450606088013567ffffffffffffffff8082111561403157600080fd5b61403d8b838c01613e2c565b909650945060808a013591508082111561405657600080fd5b506140638a828b01613e2c565b989b979a50959850939692959293505050565b60008060006060848603121561408b57600080fd5b833561409681613ab5565b95602085013595506040909401359392505050565b6000806000606084860312156140c057600080fd5b83356140cb81613ab5565b925060208401359150604084013567ffffffffffffffff8111156140ee57600080fd5b6140fa86828701613c9b565b9150509250925092565b6000806000806080858703121561411a57600080fd5b843561412581613ab5565b9350602085013561413581613ab5565b925060408501359150606085013567ffffffffffffffff81111561415857600080fd5b61416487828801613c9b565b91505092959194509250565b6000806040838503121561418357600080fd5b823561418e81613ab5565b9150602083013561419e81613ab5565b809150509250929050565b600080600080600080608087890312156141c257600080fd5b86356141cd81613ab5565b955060208701359450604087013567ffffffffffffffff80821115613ec557600080fd5b60008060006040848603121561420657600080fd5b83359250602084013567ffffffffffffffff81111561422457600080fd5b613bf686828701613e2c565b600181811c9082168061424457607f821691505b60208210810361426457634e487b7160e01b600052602260045260246000fd5b50919050565b8381526040602082015281604082015260007f07ffffffffffffffffffffffffffffffffffffffffffffffffffffffffffffff8311156142a957600080fd5b8260051b8085606085013791909101606001949350505050565b6000602082840312156142d557600080fd5b815161160c81613d0b565b634e487b7160e01b600052601160045260246000fd5b6000600160ff1b820161430b5761430b6142e0565b5060000390565b634e487b7160e01b600052600160045260246000fd5b8082018281126000831280158216821582161715614348576143486142e0565b505092915050565b8181036000831280158383131683831282161715612c0357612c036142e0565b8581526001600160a01b038516602082015283604082015282606082015260a06080820152600061395c60a0830184613a76565b6000602082840312156143b657600080fd5b5051919050565b600060208083850312156143d057600080fd5b825167ffffffffffffffff808211156143e857600080fd5b818501915085601f8301126143fc57600080fd5b81518181111561440e5761440e613c54565b8060051b915061441f848301613c6a565b818152918301840191848101908884111561443957600080fd5b938501935b83851015614463578451925061445383613ab5565b828252938501939085019061443e565b98975050505050505050565b808201808211156109f5576109f56142e0565b601f8211156114a557600081815260208120601f850160051c810160208610156144a95750805b601f850160051c820191505b818110156144c8578281556001016144b5565b505050505050565b67ffffffffffffffff8311156144e8576144e8613c54565b6144fc836144f68354614230565b83614482565b6000601f84116001811461453057600085156145185750838201355b600019600387901b1c1916600186901b178355610b86565b600083815260209020601f19861690835b828110156145615786850135825560209485019460019092019101614541565b508682101561457e5760001960f88860031b161c19848701351681555b505060018560011b0183555050505050565b818103818111156109f5576109f56142e0565b634e487b7160e01b600052603260045260246000fd5b6000806000606084860312156145ce57600080fd5b8351925060208401519150604084015190509250925092565b6000600182016145f9576145f96142e0565b5060010190565b60006020828403121561461257600080fd5b815161160c81613ab5565b8381526060602082015260006146366060830185613a76565b82810360408401526113c68185613a76565b60ff82811682821603908111156109f5576109f56142e0565b600181815b8085111561469c578160001904821115614682576146826142e0565b8085161561468f57918102915b93841c9390800290614666565b509250929050565b6000826146b3575060016109f5565b816146c0575060006109f5565b81600181146146d657600281146146e0576146fc565b60019150506109f5565b60ff8411156146f1576146f16142e0565b50506001821b6109f5565b5060208310610133831016604e8410600b841016171561471f575081810a6109f5565b6147298383614661565b806000190482111561473d5761473d6142e0565b029392505050565b600061160c60ff8416836146a4565b60008261477157634e487b7160e01b600052601260045260246000fd5b500490565b6000816000190483118215151615614790576147906142e0565b500290565b60006001600160a01b038089168352808816602084015280871660408401525084606083015260c060808301526147cf60c0830185613a76565b82810360a08401526147e18185613a76565b9998505050505050505050565b60008251614800818460208701613a52565b919091019291505056fe5375706572546f6b656e3a2064656372656173656420616c6c6f77616e63652062656c6f77207a65726f5375706572546f6b656e3a207472616e7366657220616d6f756e74206578636565647320616c6c6f77616e6365a2646970667358221220bd0b1a2651e4a44791a271dad88dbf8a1cc71445d408ac1277832952b2c85f7664736f6c63430008100033",
  "devdoc": {
    "kind": "dev",
    "methods": {
      "approve(address,uint256)": {
        "details": "Sets `amount` as the allowance of `spender` over the caller's tokens.",
        "returns": {
          "_0": "Returns Success a boolean value indicating whether the operation succeeded."
        }
      },
      "authorizeOperator(address)": {
        "details": "Make an account an operator of the caller. See {isOperatorFor}."
      },
      "balanceOf(address)": {
        "details": "Returns the amount of tokens owned by an account (`owner`)."
      },
      "burn(uint256,bytes)": {
        "details": "Destroys `amount` tokens from the caller's account, reducing the total supply and transfers the underlying token to the caller's account. If a send hook is registered for the caller, the corresponding function will be called with `data` and empty `operatorData`. See {IERC777Sender}."
      },
      "createAgreement(bytes32,bytes32[])": {
        "details": "ISuperfluidToken.createAgreement implementation"
      },
      "decimals()": {
        "details": "Returns the number of decimals used to get its user representation. For example, if `decimals` equals `2`, a balance of `505` tokens should be displayed to a user as `5,05` (`505 / 10 ** 2`). Tokens usually opt for a value of 18, imitating the relationship between Ether and Wei. This is the value {ERC20} uses, unless {_setupDecimals} is called."
      },
      "decreaseAllowance(address,uint256)": {
        "details": "Atomically decreases the allowance granted to `spender` by the caller. This is an alternative to {approve} that can be used as a mitigation for problems described in {IERC20-approve}."
      },
      "defaultOperators()": {
        "details": "Returns the list of default operators. These accounts are operators for all token holders, even if {authorizeOperator} was never called on them. This list is immutable, but individual holders may revoke these via {revokeOperator}, in which case {isOperatorFor} will return false."
      },
      "downgrade(uint256)": {
        "details": "ISuperToken.downgrade implementation"
      },
      "downgradeTo(address,uint256)": {
        "details": "Downgrade SuperToken to ERC20 and transfer immediately",
        "params": {
          "amount": "Number of tokens to be downgraded (in 18 decimals)",
          "to": "The account to receive downgraded tokens"
        }
      },
      "getAccountActiveAgreements(address)": {
        "details": "ISuperfluidToken.getAccountActiveAgreements implementation"
      },
      "getAgreementData(address,bytes32,uint256)": {
        "details": "ISuperfluidToken.getAgreementData implementation"
      },
      "getAgreementStateSlot(address,address,uint256,uint256)": {
        "details": "ISuperfluidToken.getAgreementState implementation"
      },
      "getCodeAddress()": {
        "details": "Get current implementation code address."
      },
      "getHost()": {
        "details": "ISuperfluidToken.getHost implementation"
      },
      "getUnderlyingToken()": {
        "details": "ISuperfluidGovernance.getUnderlyingToken implementation"
      },
      "granularity()": {
        "details": "Returns the smallest part of the token that is not divisible. This         means all token operations (creation, movement and destruction) must have         amounts that are a multiple of this number."
      },
      "increaseAllowance(address,uint256)": {
        "details": "Atomically increases the allowance granted to `spender` by the caller. This is an alternative to {approve} that can be used as a mitigation for problems described in {IERC20-approve}."
      },
      "initialize(address,uint8,string,string)": {
        "details": "Initialize the contract"
      },
      "isAccountCritical(address,uint256)": {
        "details": "A critical account is when availableBalance < 0",
        "params": {
          "account": "The account to check",
          "timestamp": "The time we'd like to check if the account is critical (should use future)"
        },
        "returns": {
          "isCritical": "Whether the account is critical"
        }
      },
      "isAccountCriticalNow(address)": {
        "details": "A critical account is when availableBalance < 0",
        "params": {
          "account": "The account to check"
        },
        "returns": {
          "isCritical": "Whether the account is critical"
        }
      },
      "isAccountSolvent(address,uint256)": {
        "details": "An account is insolvent when the sum of deposits for a token can't cover the negative availableBalance",
        "params": {
          "account": "The account to check",
          "timestamp": "The time we'd like to check if the account is solvent (should use future)"
        },
        "returns": {
          "isSolvent": "True if the account is solvent, false otherwise"
        }
      },
      "isAccountSolventNow(address)": {
        "details": "An account is insolvent when the sum of deposits for a token can't cover the negative availableBalance",
        "params": {
          "account": "The account to check"
        },
        "returns": {
          "isSolvent": "True if the account is solvent, false otherwise"
        }
      },
      "isOperatorFor(address,address)": {
        "details": "Returns true if an account is an operator of `tokenHolder`. Operators can send and burn tokens on behalf of their owners. All accounts are their own operator. See {operatorSend} and {operatorBurn}."
      },
      "makeLiquidationPayoutsV2(bytes32,bytes,address,bool,address,uint256,int256)": {
        "details": "ISuperfluidToken.makeLiquidationPayoutsV2 implementation"
      },
      "name()": {
        "details": "Returns the name of the token."
      },
      "operationApprove(address,address,uint256)": {
        "details": "Perform ERC20 approve by host contract.",
        "params": {
          "account": "The account owner to be approved.",
          "amount": "Number of tokens to be approved.",
          "spender": "The spender of account owner's funds."
        }
      },
      "operationDowngrade(address,uint256)": {
        "details": "Downgrade ERC20 to SuperToken by host contract.",
        "params": {
          "account": "The account to be changed.",
          "amount": "Number of tokens to be downgraded (in 18 decimals)"
        }
      },
      "operationTransferFrom(address,address,address,uint256)": {
        "details": "Perform ERC20 transferFrom by host contract.",
        "params": {
          "account": "The account to spend sender's funds.",
          "amount": "Number of tokens to be transferred.",
          "recipient": "The recipient of the funds.",
          "spender": "The account where the funds is sent from."
        }
      },
      "operationUpgrade(address,uint256)": {
        "details": "Upgrade ERC20 to SuperToken by host contract.",
        "params": {
          "account": "The account to be changed.",
          "amount": "Number of tokens to be upgraded (in 18 decimals)"
        }
      },
      "operatorBurn(address,uint256,bytes,bytes)": {
        "details": "Destroys `amount` tokens from `account`, reducing the total supply. The caller must be an operator of `account`. If a send hook is registered for `account`, the corresponding function will be called with `data` and `operatorData`. See {IERC777Sender}."
      },
      "operatorSend(address,address,uint256,bytes,bytes)": {
        "details": "Moves `amount` tokens from `sender` to `recipient`. The caller must be an operator of `sender`. If send or receive hooks are registered for `sender` and `recipient`, the corresponding functions will be called with `data` and `operatorData`. See {IERC777Sender} and {IERC777Recipient}."
      },
      "proxiableUUID()": {
        "details": "Proxiable UUID marker function, this would help to avoid wrong logic      contract to be used for upgrading. NOTE: The semantics of the UUID deviates from the actual UUPS standard,       where it is equivalent of _IMPLEMENTATION_SLOT."
      },
      "realtimeBalanceOf(address,uint256)": {
        "details": "ISuperfluidToken.realtimeBalanceOf implementation"
      },
      "realtimeBalanceOfNow(address)": {
        "details": "ISuperfluidToken.realtimeBalanceOfNow implementation"
      },
      "revokeOperator(address)": {
        "details": "Revoke an account's operator status for the caller. See {isOperatorFor} and {defaultOperators}."
      },
      "selfApproveFor(address,address,uint256)": {
        "details": "Give `spender`, `amount` allowance to spend the tokens of `account`."
      },
      "selfBurn(address,uint256,bytes)": {
        "details": "Burn existing tokens for the account"
      },
      "selfMint(address,uint256,bytes)": {
        "details": "Mint new tokens for the account"
      },
      "send(address,uint256,bytes)": {
        "details": "Moves `amount` tokens from the caller's account to `recipient`.If send or receive hooks are registered for the caller and `recipient`,      the corresponding functions will be called with `data` and empty      `operatorData`. See {IERC777Sender} and {IERC777Recipient}."
      },
      "settleBalance(address,int256)": {
        "details": "ISuperfluidToken.settleBalance implementation"
      },
      "symbol()": {
        "details": "Returns the symbol of the token, usually a shorter version of the name."
      },
      "terminateAgreement(bytes32,uint256)": {
        "details": "ISuperfluidToken.terminateAgreement implementation"
      },
      "totalSupply()": {
        "details": "See {IERC20-totalSupply}."
      },
      "transfer(address,uint256)": {
        "details": "Moves `amount` tokens from the caller's account to `recipient`.",
        "returns": {
          "_0": "Returns Success a boolean value indicating whether the operation succeeded."
        }
      },
      "transferAll(address)": {
        "details": "Transfer all available balance from `msg.sender` to `recipient`"
      },
      "updateAgreementData(bytes32,bytes32[])": {
        "details": "ISuperfluidToken.updateAgreementData implementation"
      },
      "updateAgreementStateSlot(address,uint256,bytes32[])": {
        "details": "ISuperfluidToken.updateAgreementState implementation"
      },
      "upgrade(uint256)": {
        "details": "ISuperToken.upgrade implementation"
      },
      "upgradeTo(address,uint256,bytes)": {
        "details": "ISuperToken.upgradeTo implementation"
      }
    },
    "version": 1
  },
  "userdoc": {
    "kind": "user",
    "methods": {
      "isAccountCritical(address,uint256)": {
        "notice": "Check if account is critical"
      },
      "isAccountCriticalNow(address)": {
        "notice": "Check if account is critical now (current host.getNow())"
      },
      "isAccountSolvent(address,uint256)": {
        "notice": "Check if account is solvent"
      },
      "isAccountSolventNow(address)": {
        "notice": "Check if account is solvent now"
      }
    },
    "version": 1
  },
  "storageLayout": {
    "storage": [
      {
        "astId": 501,
        "contract": "contracts/SuperLivyToken.sol:SuperLivyToken",
        "label": "_initialized",
        "offset": 0,
        "slot": "0",
        "type": "t_uint8"
      },
      {
        "astId": 504,
        "contract": "contracts/SuperLivyToken.sol:SuperLivyToken",
        "label": "_initializing",
        "offset": 1,
        "slot": "0",
        "type": "t_bool"
      },
      {
        "astId": 11723,
        "contract": "contracts/SuperLivyToken.sol:SuperLivyToken",
        "label": "_inactiveAgreementBitmap",
        "offset": 0,
        "slot": "1",
        "type": "t_mapping(t_address,t_uint256)"
      },
      {
        "astId": 11728,
        "contract": "contracts/SuperLivyToken.sol:SuperLivyToken",
        "label": "_sharedSettledBalances",
        "offset": 0,
        "slot": "2",
        "type": "t_mapping(t_address,t_int256)"
      },
      {
        "astId": 11731,
        "contract": "contracts/SuperLivyToken.sol:SuperLivyToken",
        "label": "_totalSupply",
        "offset": 0,
        "slot": "3",
        "type": "t_uint256"
      },
      {
        "astId": 11733,
        "contract": "contracts/SuperLivyToken.sol:SuperLivyToken",
        "label": "_reserve4",
        "offset": 0,
        "slot": "4",
        "type": "t_uint256"
      },
      {
        "astId": 11735,
        "contract": "contracts/SuperLivyToken.sol:SuperLivyToken",
        "label": "_reserve5",
        "offset": 0,
        "slot": "5",
        "type": "t_uint256"
      },
      {
        "astId": 11737,
        "contract": "contracts/SuperLivyToken.sol:SuperLivyToken",
        "label": "_reserve6",
        "offset": 0,
        "slot": "6",
        "type": "t_uint256"
      },
      {
        "astId": 11739,
        "contract": "contracts/SuperLivyToken.sol:SuperLivyToken",
        "label": "_reserve7",
        "offset": 0,
        "slot": "7",
        "type": "t_uint256"
      },
      {
        "astId": 11741,
        "contract": "contracts/SuperLivyToken.sol:SuperLivyToken",
        "label": "_reserve8",
        "offset": 0,
        "slot": "8",
        "type": "t_uint256"
      },
      {
        "astId": 11743,
        "contract": "contracts/SuperLivyToken.sol:SuperLivyToken",
        "label": "_reserve9",
        "offset": 0,
        "slot": "9",
        "type": "t_uint256"
      },
      {
        "astId": 11745,
        "contract": "contracts/SuperLivyToken.sol:SuperLivyToken",
        "label": "_reserve10",
        "offset": 0,
        "slot": "10",
        "type": "t_uint256"
      },
      {
        "astId": 11747,
        "contract": "contracts/SuperLivyToken.sol:SuperLivyToken",
        "label": "_reserve11",
        "offset": 0,
        "slot": "11",
        "type": "t_uint256"
      },
      {
        "astId": 11749,
        "contract": "contracts/SuperLivyToken.sol:SuperLivyToken",
        "label": "_reserve12",
        "offset": 0,
        "slot": "12",
        "type": "t_uint256"
      },
      {
        "astId": 11751,
        "contract": "contracts/SuperLivyToken.sol:SuperLivyToken",
        "label": "_reserve13",
        "offset": 0,
        "slot": "13",
        "type": "t_uint256"
      },
      {
        "astId": 10075,
        "contract": "contracts/SuperLivyToken.sol:SuperLivyToken",
        "label": "_underlyingToken",
        "offset": 0,
        "slot": "14",
        "type": "t_contract(IERC20)741"
      },
      {
        "astId": 10078,
        "contract": "contracts/SuperLivyToken.sol:SuperLivyToken",
        "label": "_underlyingDecimals",
        "offset": 20,
        "slot": "14",
        "type": "t_uint8"
      },
      {
        "astId": 10081,
        "contract": "contracts/SuperLivyToken.sol:SuperLivyToken",
        "label": "_name",
        "offset": 0,
        "slot": "15",
        "type": "t_string_storage"
      },
      {
        "astId": 10084,
        "contract": "contracts/SuperLivyToken.sol:SuperLivyToken",
        "label": "_symbol",
        "offset": 0,
        "slot": "16",
        "type": "t_string_storage"
      },
      {
        "astId": 10091,
        "contract": "contracts/SuperLivyToken.sol:SuperLivyToken",
        "label": "_allowances",
        "offset": 0,
        "slot": "17",
        "type": "t_mapping(t_address,t_mapping(t_address,t_uint256))"
      },
      {
        "astId": 10095,
        "contract": "contracts/SuperLivyToken.sol:SuperLivyToken",
        "label": "_operators",
        "offset": 0,
        "slot": "18",
        "type": "t_struct(Operators)9634_storage"
      },
      {
        "astId": 10097,
        "contract": "contracts/SuperLivyToken.sol:SuperLivyToken",
        "label": "_reserve22",
        "offset": 0,
        "slot": "22",
        "type": "t_uint256"
      },
      {
        "astId": 10099,
        "contract": "contracts/SuperLivyToken.sol:SuperLivyToken",
        "label": "_reserve23",
        "offset": 0,
        "slot": "23",
        "type": "t_uint256"
      },
      {
        "astId": 10101,
        "contract": "contracts/SuperLivyToken.sol:SuperLivyToken",
        "label": "_reserve24",
        "offset": 0,
        "slot": "24",
        "type": "t_uint256"
      },
      {
        "astId": 10103,
        "contract": "contracts/SuperLivyToken.sol:SuperLivyToken",
        "label": "_reserve25",
        "offset": 0,
        "slot": "25",
        "type": "t_uint256"
      },
      {
        "astId": 10105,
        "contract": "contracts/SuperLivyToken.sol:SuperLivyToken",
        "label": "_reserve26",
        "offset": 0,
        "slot": "26",
        "type": "t_uint256"
      },
      {
        "astId": 10107,
        "contract": "contracts/SuperLivyToken.sol:SuperLivyToken",
        "label": "_reserve27",
        "offset": 0,
        "slot": "27",
        "type": "t_uint256"
      },
      {
        "astId": 10109,
        "contract": "contracts/SuperLivyToken.sol:SuperLivyToken",
        "label": "_reserve28",
        "offset": 0,
        "slot": "28",
        "type": "t_uint256"
      },
      {
        "astId": 10111,
        "contract": "contracts/SuperLivyToken.sol:SuperLivyToken",
        "label": "_reserve29",
        "offset": 0,
        "slot": "29",
        "type": "t_uint256"
      },
      {
        "astId": 10113,
        "contract": "contracts/SuperLivyToken.sol:SuperLivyToken",
        "label": "_reserve30",
        "offset": 0,
        "slot": "30",
        "type": "t_uint256"
      },
      {
        "astId": 10115,
        "contract": "contracts/SuperLivyToken.sol:SuperLivyToken",
        "label": "_reserve31",
        "offset": 0,
        "slot": "31",
        "type": "t_uint256"
      }
    ],
    "types": {
      "t_address": {
        "encoding": "inplace",
        "label": "address",
        "numberOfBytes": "20"
      },
      "t_array(t_address)dyn_storage": {
        "base": "t_address",
        "encoding": "dynamic_array",
        "label": "address[]",
        "numberOfBytes": "32"
      },
      "t_bool": {
        "encoding": "inplace",
        "label": "bool",
        "numberOfBytes": "1"
      },
      "t_contract(IERC20)741": {
        "encoding": "inplace",
        "label": "contract IERC20",
        "numberOfBytes": "20"
      },
      "t_int256": {
        "encoding": "inplace",
        "label": "int256",
        "numberOfBytes": "32"
      },
      "t_mapping(t_address,t_bool)": {
        "encoding": "mapping",
        "key": "t_address",
        "label": "mapping(address => bool)",
        "numberOfBytes": "32",
        "value": "t_bool"
      },
      "t_mapping(t_address,t_int256)": {
        "encoding": "mapping",
        "key": "t_address",
        "label": "mapping(address => int256)",
        "numberOfBytes": "32",
        "value": "t_int256"
      },
      "t_mapping(t_address,t_mapping(t_address,t_bool))": {
        "encoding": "mapping",
        "key": "t_address",
        "label": "mapping(address => mapping(address => bool))",
        "numberOfBytes": "32",
        "value": "t_mapping(t_address,t_bool)"
      },
      "t_mapping(t_address,t_mapping(t_address,t_uint256))": {
        "encoding": "mapping",
        "key": "t_address",
        "label": "mapping(address => mapping(address => uint256))",
        "numberOfBytes": "32",
        "value": "t_mapping(t_address,t_uint256)"
      },
      "t_mapping(t_address,t_uint256)": {
        "encoding": "mapping",
        "key": "t_address",
        "label": "mapping(address => uint256)",
        "numberOfBytes": "32",
        "value": "t_uint256"
      },
      "t_string_storage": {
        "encoding": "bytes",
        "label": "string",
        "numberOfBytes": "32"
      },
      "t_struct(Operators)9634_storage": {
        "encoding": "inplace",
        "label": "struct ERC777Helper.Operators",
        "members": [
          {
            "astId": 9617,
            "contract": "contracts/SuperLivyToken.sol:SuperLivyToken",
            "label": "defaultOperatorsArray",
            "offset": 0,
            "slot": "0",
            "type": "t_array(t_address)dyn_storage"
          },
          {
            "astId": 9621,
            "contract": "contracts/SuperLivyToken.sol:SuperLivyToken",
            "label": "defaultOperators",
            "offset": 0,
            "slot": "1",
            "type": "t_mapping(t_address,t_bool)"
          },
          {
            "astId": 9627,
            "contract": "contracts/SuperLivyToken.sol:SuperLivyToken",
            "label": "operators",
            "offset": 0,
            "slot": "2",
            "type": "t_mapping(t_address,t_mapping(t_address,t_bool))"
          },
          {
            "astId": 9633,
            "contract": "contracts/SuperLivyToken.sol:SuperLivyToken",
            "label": "revokedDefaultOperators",
            "offset": 0,
            "slot": "3",
            "type": "t_mapping(t_address,t_mapping(t_address,t_bool))"
          }
        ],
        "numberOfBytes": "128"
      },
      "t_uint256": {
        "encoding": "inplace",
        "label": "uint256",
        "numberOfBytes": "32"
      },
      "t_uint8": {
        "encoding": "inplace",
        "label": "uint8",
        "numberOfBytes": "1"
      }
    }
  }
}